S01100004D794361725F4B36302E7372656327
S3151FFF00009026FF1F1104FF1F2104FF1F6313FF1FEE
S3151FFF00102104FF1F2104FF1F2104FF1F00000000F3
S3151FFF00200000000000000000000000002104FF1F69
S3151FFF00302104FF1F000000002104FF1F351FFF1FA4
S3151FFF00407516FF1F8B16FF1FA116FF1FB716FF1F64
S3151FFF0050CD16FF1FE316FF1FF916FF1F0F17FF1FF3
S3151FFF00602517FF1F3B17FF1F5117FF1F6717FF1F80
S3151FFF00707D17FF1F9317FF1FA917FF1FBF17FF1F10
S3151FFF00802104FF1F2104FF1F2104FF1F2104FF1F40
S3151FFF00902104FF1F2104FF1F2104FF1F2104FF1F30
S3151FFF00A0D118FF1F2B19FF1F2D0EFF1FD70EFF1F67
S3151FFF00B0810FFF1F9711FF1F9F11FF1FA711FF1F04
S3151FFF00C0B511FF1FBF11FF1FC911FF1FCB11FF1F48
S3151FFF00D0CD11FF1FCF11FF1FD711FF1FDF11FF1FEE
S3151FFF00E0ED11FF1FF711FF1F2112FF1F2312FF1F06
S3151FFF00F02512FF1F4307FF1F2104FF1F7307FF1F44
S3151FFF01002104FF1FA307FF1F2104FF1FD307FF1F85
S3151FFF01102104FF1F0308FF1F2104FF1F3308FF1FB3
S3151FFF01202104FF1FAD1EFF1FB71EFF1F2104FF1F49
S3151FFF01302104FF1F2104FF1F391EFF1F431EFF1F21
S3151FFF01404D1EFF1F2104FF1FED1BFF1F0000000099
S3151FFF0150811BFF1F971BFF1FAD1BFF1FC31BFF1F0F
S3151FFF01601D1AFF1F451FFF1F2104FF1FE919FF1F31
S3151FFF0170C319FF1F9D19FF1FFF19FF1F2104FF1F14
S3151FFF01802104FF1FDD17FF1F4718FF1F111BFF1F2F
S3151FFF01902104FF1F8D1EFF1F2104FF1F9D1AFF1F17
S3151FFF01A0AF1AFF1FC11AFF1FD31AFF1FE51AFF1F23
S3151FFF01B02104FF1F2104FF1F2104FF1F2104FF1F0F
S3151FFF01C02104FF1F2104FF1F2104FF1F2104FF1FFF
S3151FFF01D02104FF1F2104FF1F2104FF1F2104FF1FEF
S3151FFF01E06D13FF1F6D13FF1F6D13FF1F6D13FF1F73
S3151FFF041001488047014800474912FF1FE71EFF1F7C
S3151FFF042000F0A4BF0FB4F0B50598069B9DF81C708E
S3151FFF04309DF81D500899099A002B01D14FF41653A9
S3151FFF0440DFF82044A0423FD10024DFF81C64366842
S3151FFF0450DFF818C4DCF800C05CF4806CDFF80CE42E
S3151FFF0460CEF800C0FFB2022F06D14FF40077DFF898
S3151FFF047000C4CCF800700FE0FFB20E2F06D14FF469
S3151FFF04804077DFF8F0C3CCF8007005E04FF44077F4
S3151FFF0490DFF8E4C3CCF80070EDB2012D05D14FF4A0
S3151FFF04A00075DFF8D8733D60F4E0EDB20F2D05D16F
S3151FFF04B04FF44075DFF8C8733D60EBE04FF44075AE
S3151FFF04C0DFF8C0733D60E5E0DFF8BC43A0422CD1E7
S3151FFF04D00124DFF894633668DFF890C3DCF800C0A9
S3151FFF04E05CF4006CDFF884E3CEF800C0FFB27C2F0C
S3151FFF04F006D14FF44077DFF894C3CCF8007005E0C0
S3151FFF05004FF44077DFF888C3CCF80070EDB27D2D2E
S3151FFF051005D14FF44075DFF87C733D60BAE04FF4A9
S3151FFF05204075DFF874733D60B4E0DFF870432668EB
S3151FFF0530DFF86C43A04213D10224DFF830532D6836
S3151FFF054055F48055DFF824733D604FF44075DFF88F
S3151FFF055054733D604FF44075DFF84C733D6099E06F
S3151FFF0560DFF84843A0423CD10324DFF800C3DCF881
S3151FFF057000C05CF4005CDFF8F4E2CEF800C0FFB207
S3151FFF0580802F06D14FF44077DFF824C3CCF80070D5
S3151FFF05900FE0FFB22B2F06D14FF44077DFF814C3BE
S3151FFF05A0CCF8007005E04FF44077DFF80CC3CCF8AA
S3151FFF05B00070EDB2812D05D14FF44075DFF8FC7247
S3151FFF05C03D6067E0EDB22A2D05D14FF44075DFF888
S3151FFF05D0F0723D605EE04FF44075DFF8E8723D60F4
S3151FFF05E058E0DFF8E442A04229D10424DFF8DCC239
S3151FFF05F0DCF800C05CF4806CDFF8D0E2CEF800C0F8
S3151FFF0600FFB2942F06D14FF44077DFF8C4C2CCF860
S3151FFF0610007005E04FF44077DFF8B8C2CCF80070E2
S3151FFF0620EDB2952D05D14FF44075DFF8AC723D60E5
S3151FFF063030E04FF44075DFF8A4723D602AE00524D1
S3151FFF0640DFF89C02DFF884C2DCF800C05CF4006CA4
S3151FFF0650DFF878E2CEF800C0FFB2652F06D14FF460
S3151FFF06604077DFF880C2CCF8007005E04FF4407783
S3151FFF0670DFF874C2CCF80070EDB2642D05D14FF4CC
S3151FFF06804075DFF868723D6004E04FF44075DFF890
S3151FFF069060723D60C57815F0F305C570002585703E
S3151FFF06A01D01B6FBF5F5077817F0E007ADB25FEA58
S3151FFF06B0152C1CF01F0C5CEA0707077045707601A7
S3151FFF06C01B01B6FBF3F3ADB2B3EB4513857A15F0FA
S3151FFF06D0E00713F01F033B4383729DF81E30012B68
S3151FFF06E00BD10B00002B08D0C37853F02003C37028
S3151FFF06F0804BE4B243F8241003E0C17811F0DF0109
S3151FFF0700C1709DF81F1001290BD11100002908D0B8
S3151FFF0710C17851F08001C1707749E4B241F82420B6
S3151FFF072003E0C17811F07F01C170C17851F00C0150
S3151FFF0730C170F0BC5DF814FB02791206FCD5C171BE
S3151FFF0740704780B56D480078800606D56C480078DF
S3151FFF0750800602D56748006880476848007800060C
S3151FFF076006D567480078000602D5634800688047AC
S3151FFF077001BD80B563480078800606D562480078BC
S3151FFF0780800602D55B48406880475E4800780006B2
S3151FFF079006D55D480078000602D557484068804752
S3151FFF07A001BD80B559480078800606D558480078A0
S3151FFF07B0800602D54F488068804754480078000658
S3151FFF07C006D553480078000602D54B4880688047F8
S3151FFF07D001BD80B54F480078800606D54E48007884
S3151FFF07E0800602D54348C06880474A4800780006FE
S3151FFF07F006D549480078000602D53F48C06880479E
S3151FFF080001BD80B545480078800606D54448007867
S3151FFF0810800602D5374800698047404800780006A2
S3151FFF082006D53F480078000602D533480069804742
S3151FFF083001BD80B53B480078800606D53A4800784B
S3151FFF0840800602D52B484069804736480078000648
S3151FFF085006D535480078000602D5274840698047E8
S3151FFF086001BD000000A00640B41FFF1F34800440D7
S3151FFF0870089004403890044044A00440049004406C
S3151FFF08803C90044040A0044000B0064000D0044006
S3151FFF089010B0044004D004400CB00440B81FFF1F23
S3151FFF08A000C006400CC0044008C0044000D00640EC
S3151FFF08B010D004402CA0044044B0044014D0044080
S3151FFF08C028A0044040B0044000A00E4028800440EA
S3151FFF08D060D004403CB0044064D0044038B00440AC
S3151FFF08E000B00E4024C0044020D0044020C0044066
S3151FFF08F024D004405C22FF1F7422FF1F04A0064062
S3151FFF090003A0064004B0064003B0064004C00640DD
S3151FFF091003C0064004D0064003D0064004A00E4085
S3151FFF092003A00E4004B00E4003B00E4010B50C00DE
S3151FFF09301168012902D0022904D009E040B251688B
S3151FFF0940884705E0916808709068401C9060FFE734
S3151FFF09502068401C206010BD30B41C0000230025FA
S3151FFF09600570401C002A19D0096800290AD13021B9
S3151FFF097001705B1C180030BC7047303511000570C5
S3151FFF0980401C5B1C0029F5D091FBF4F204FB1215EA
S3151FFF0990002DF2D5E94311F13105EFE7096800296B
S3151FFF09A008D1302101705B1CE4E737351100057054
S3151FFF09B0401C5B1C0029DDD0B1FBF4F204FB1215B2
S3151FFF09C00A2DF2D23035F1E7F8B504000D001600F7
S3151FFF09D01F0005E03A0031003020FFF7A7FF641C18
S3151FFF09E0AC42F7DBF1BDF8B504000D0016001F0082
S3151FFF09F005E03A0031002020FFF798FF641CAC4248
S3151FFF0A00F7DBF1BD2DE9F04F8DB0050090460020B5
S3151FFF0A1000900C0004E02A0000A9FFF787FF641C63
S3151FFF0A2094F90000002800F0DD81252811D00A283F
S3151FFF0A3004D02A0000A9FFF779FF09E02A0000A9C1
S3151FFF0A400D20FFF773FF2A0000A90A20FFF76EFF8D
S3151FFF0A50E5E70026002101E056F0010600291CD11B
S3151FFF0A60641C94F9000020280BD023280FD02B28B5
S3151FFF0A7004D02D28F0D0302806D00BE056F0020602
S3151FFF0A80ECE756F00406E9E756F00806E6E756F0E8
S3151FFF0A901006E3E7641E0121E0E70027002104E0BB
S3151FFF0AA00A2202FB0700B0F13007002909D1641C97
S3151FFF0AB094F900000200303A092AF1D9641E012178
S3151FFF0AC0F3E7641C94F900002E280CD10021FFE7E1
S3151FFF0AD0002909D1641C94F9000030380928F7D979
S3151FFF0AE0641E0121F4E7641E641C94F900004C2860
S3151FFF0AF006D0682802D06C2801D002E002E001E090
S3151FFF0B0000E0641E641C94F900000100582977D089
S3151FFF0B10622900F0D880632900F02A81642913D047
S3151FFF0B20692911D06E2900F056816F2900F0BE800A
S3151FFF0B30702900F0D580732900F02481752900F0F4
S3151FFF0B40DC8078295CD066E7D8F8000018F1040826
S3151FFF0B5003900A23012203A904A8FFF7FDFE81467E
S3151FFF0B6004A819EB000002900398002804D55FF034
S3151FFF0B702D0A19F101090FE0B00704D55FF02B0A03
S3151FFF0B8019F1010908E0700704D55FF0200A19F172
S3151FFF0B90010901E05FF0000A5FF0000B300711D576
S3151FFF0BA0BAF1000F04D02A0000A95046FFF7BEFE78
S3151FFF0BB05FF0010B2B0000AA39004846FFF704FF21
S3151FFF0BC0B94611E0F0070FD42B0000AA390048469B
S3151FFF0BD0FFF709FFBAF1000F04D02A0000A95046FC
S3151FFF0BE0FFF7A4FE5FF0010BBBF1000F07D1BAF1B0
S3151FFF0BF0000F04D02A0000A95046FFF797FEA9E071
S3151FFF0C00D8F8000018F1040801901023002201A94B
S3151FFF0C1004A8FFF7A1FE814604A819EB0000029066
S3151FFF0C205FF0000B300715D5F0060BD52A0000A97C
S3151FFF0C303020FFF77BFE2A0000A97820FFF776FEFC
S3151FFF0C405FF0010B2B0000AA39004846FFF7BCFED9
S3151FFF0C50B94619E0F00717D4F00601D519F10209B5
S3151FFF0C602B0000AA39004846FFF7BDFEF0060BD53D
S3151FFF0C702A0000A93020FFF759FE2A0000A9782075
S3151FFF0C80FFF754FE5FF0010BF0060ED5BBF1000F09
S3151FFF0C900BD12A0000A93020FFF748FE2A0000A922
S3151FFF0CA07820FFF743FE19F1020953E0D8F8000039
S3151FFF0CB018F1040801900823002201A904A8FFF7D1
S3151FFF0CC04BFE814625E0D8F8000018F10408019075
S3151FFF0CD00223002201A904A8FFF73EFE814618E062
S3151FFF0CE0D8F8000018F1040801901023002201A96B
S3151FFF0CF004A8FFF731FE81460BE0D8F8000018F174
S3151FFF0D00040801900A23002201A904A8FFF724FE65
S3151FFF0D10814604A819EB00000290300707D52B0068
S3151FFF0D2000AA39004846FFF74FFEB94612E0F00703
S3151FFF0D3010D42B0000AA39004846FFF754FE09E0DE
S3151FFF0D402A0000A9029890F90000FFF7EFFD02980D
S3151FFF0D50401E0290029890F900000028F0D1F0077C
S3151FFF0D6005D52B0000AA39004846FFF73CFE56E67D
S3151FFF0D70D8F8000018F1040840B22A0000A9FFF7AF
S3151FFF0D80D5FD4CE6D8F800A018F10408BAF1000FFC
S3151FFF0D9020D0504600F03CF88146F0070ED42B00BA
S3151FFF0DA000AA39004846FFF71EFE07E02A0000A9E2
S3151FFF0DB09AF90000FFF7BAFD1AF1010A9AF9000026
S3151FFF0DC00028F3D1F00705D52B0000AA39004846A6
S3151FFF0DD0FFF709FE23E6D8F8000018F1040800996B
S3151FFF0DE001601CE600980DB0BDE8F08F0EB400B58C
S3151FFF0DF084B0012100910549019105AA010000A8B0
S3151FFF0E00FFF700FE04B05DF810FB00000D1FFF1F6C
S3151FFF0E100021002802D1002007E0491C0200501CB8
S3151FFF0E2092F90020002AF8D10800704780B5824842
S3151FFF0E300068002809D57D48006880477E480068FE
S3151FFF0E4050F000407C49086044E07B480068C000C2
S3151FFF0E5009D57648406880477748006850F080502C
S3151FFF0E607549086036E074480068000109D56F4868
S3151FFF0E70806880477048006850F000606E490860C0
S3151FFF0E8028E06D480068800109D5684800698047DA
S3151FFF0E906948006850F00070674908601AE06648A5
S3151FFF0EA00068000309D56148C0688047624800682B
S3151FFF0EB050F40020604908600CE05F48006880031B
S3151FFF0EC008D55A48406980475B48006850F4003090
S3151FFF0ED05949086001BD80B558480068002809D5E3
S3151FFF0EE05348006880475548006850F000405349F3
S3151FFF0EF0086044E051480068C00009D54C48406867
S3151FFF0F0080474E48006850F080504C49086036E0D5
S3151FFF0F104A480068000109D5454880688047474809
S3151FFF0F20006850F000604549086028E043480068A4
S3151FFF0F30800109D53E48006980474048006850F048
S3151FFF0F4000703E4908601AE03C480068000309D557
S3151FFF0F503748C06880473948006850F40020374932
S3151FFF0F6008600CE035480068800308D530484069A3
S3151FFF0F7080473248006850F400303049086001BD91
S3151FFF0F8080B52F480068002809D52A480068804782
S3151FFF0F902B48006850F000402949086044E0284864
S3151FFF0FA00068C00009D52348406880472448006869
S3151FFF0FB050F080502249086036E021480068000142
S3151FFF0FC009D51C48806880471D48006850F000609F
S3151FFF0FD01B49086028E01A480068800109D5154893
S3151FFF0FE0006980471648006850F000701449086072
S3151FFF0FF01AE013480068000309D50E48C0688047EA
S3151FFF10000F48006850F400200D4908600CE00C489B
S3151FFF10100068800308D5074840698047084800686D
S3151FFF102050F400300649086001BD00000822FF1F6B
S3151FFF10302022FF1F3822FF1F2CC002402CD0024048
S3151FFF10402CC00A40C9B2202906DA026B012313FA04
S3151FFF105001F11143016306E0C26A0123203913FA26
S3151FFF106001F11143C1627047C9B2202904DA006B2F
S3151FFF1070C84010F0010004E0C06A2039C84010F0D4
S3151FFF10800100C0B2704738B505000C002100C9B278
S3151FFF10902800FFF7E9FF002821D02100C9B2280049
S3151FFF10A0FFF7D0FF574885420BD15848E4B250F897
S3151FFF10B02400002813D05548E4B250F82400804777
S3151FFF10C00DE0514885420AD15148E4B250F8240039
S3151FFF10D0002804D04E48E4B250F82400804731BDA3
S3151FFF10E038B504000D002900C9B22000FFF7BCFF69
S3151FFF10F0012812D14348844210D14448EDB250F81B
S3151FFF11002500002804D04148EDB250F8250080473E
S3151FFF11102900C9B22000FFF795FF31BD3A48844227
S3151FFF11200BD13B48EDB250F825000028F0D03848C8
S3151FFF1130EDB250F825008047EAE7EEE710B5002429
S3151FFF11400FE03448E4B210EB0410007A012807D1F0
S3151FFF11502100C9B22F48E4B222011058FFF7C0FF82
S3151FFF1160641CE4B2102C15DA2A48E4B22101085890
S3151FFF11700028F5D02748E4B210EB0410007A0228A6
S3151FFF1180DFD12100C9B22348E4B222011058FFF76D
S3151FFF11907AFFE5E710BD80B5FFF7D0FF01BD04203D
S3151FFF11A01D49086070471C480068810701D51A4909
S3151FFF11B0086070475FF400301749086070475FF497
S3151FFF11C0803015490860704770477047704780B574
S3151FFF11D0FFF7B4FF01BD04201049086070470F4891
S3151FFF11E00068810701D50D49086070475FF400301D
S3151FFF11F00A49086070475FF48030084908607047E6
S3151FFF1200000000000040024000400A40D020FF1FA0
S3151FFF12101021FF1FD01FFF1F2040024020400A4002
S3151FFF122070477047704750F8041B61B150F8042B85
S3151FFF1230D30744BFA9F101039A180023091F42F8D8
S3151FFF1240043BFAD1EFE7704700B587B04D480068FA
S3151FFF125050F478504B4908604CF220504A49088099
S3151FFF12604DF62810484908804FF4E9704749088012
S3151FFF127000F0B8F8642000F005F900F05FF8444865
S3151FFF12800068444908604348006843490968C1F339
S3151FFF12900361491CB0FBF1F0404908603D480068F7
S3151FFF12A03D490968C1F30351491CB0FBF1F03C49A5
S3151FFF12B008603848006838490968C1F30341491C6B
S3151FFF12C0B0FBF1F037490860374801905FF4E13012
S3151FFF12D0029001A984B06846142200F09FF90FBC43
S3151FFF12E0FFF7A0F826A0FFF781FD3048FFF77EFD29
S3151FFF12F02F493048FFF77AFD284800682E49B0FB73
S3151FFF1300F1F2244800682C49B0FBF1F12B48FFF797
S3151FFF13106DFD244800682849B0FBF1F2204800689C
S3151FFF13202549B0FBF1F12648FFF760FD2548FFF77A
S3151FFF13305DFD2548FFF75AFD07B000BD234800781E
S3151FFF1340C0B210F01F0018302149484321490978C0
S3151FFF1350C9B211F01F01491CB0FBF1F00C4908601F
S3151FFF1360704780B51C48FFF741FD01BD80B51B487F
S3151FFF13700078C0B2B0F110011948FFF737FD01BD64
S3151FFF13800D0A0000388004400E200540002005404E
S3151FFF1390C41FFF1FB41FFF1F44800440B81FFF1F3A
S3151FFF13A0C01FFF1FBC1FFF1F00B00E40E01CFF1F0B
S3151FFF13B0601FFF1F681DFF1F40420F00F01DFF1F0D
S3151FFF13C0141EFF1F241DFF1F981CFF1F05400640ED
S3151FFF13D080F0FA02044006406C1EFF1F04ED00E07A
S3151FFF13E0981DFF1F1C481D4988420BD0002006E091
S3151FFF13F01A4951F82010184A42F82010401CB0F520
S3151FFF1400826FF5D31448164908601649164A1748BE
S3151FFF1410801A03E013780B70521C491C0300581ED9
S3151FFF1420002BF7D112491348401A02E000220A7017
S3151FFF1430491C0200501E002AF8D10F490F4A1048B7
S3151FFF1440801A03E013780B70521C491C0300581EA9
S3151FFF1450002BF7D1704700BF0000FF1F0000FF1FC3
S3151FFF146008ED00E0B41FFF1F201FFF1F341FFF1FC4
S3151FFF1470C81FFF1F9022FF1F681FFF1F4C1CFF1F48
S3151FFF1480981CFF1FF8B5C0B2C92801D3C820FFE7B4
S3151FFF1490C0B2010030290ED032291AD060291BD0C5
S3151FFF14A064291CD078291DD096291ED0B4291FD098
S3151FFF14B0C82920D022E01827002506000024C0B225
S3151FFF14C03221B0FBF1F1491EC9B2FF291AD1002102
S3151FFF14D020E018270125F0E718271825EDE718271D
S3151FFF14E01A25EAE713271825E7E70F271825E4E745
S3151FFF14F00E271E25E1E70C271C25DEE76020FFF7D9
S3151FFF1500C1FF7CE0C0B2C9B24A1C90FBF2F2332A7C
S3151FFF151000D3491CC0B23222B0FBF2F2521ED2B226
S3151FFF1520FF2A01D1002207E0C0B2D2B2531C90FBA3
S3151FFF1530F3F3332B00D3521CC0B21923B0FBF3F3C3
S3151FFF15405B1EDBB2FF2B01D1002308E0C0B2DBB26B
S3151FFF155013F1010C90FBFCF01A2800D35B1C002033
S3151FFF1560DFF89CC08CF800002648006850F08050BA
S3151FFF1570DFF890C0CCF800002348007850F08000B9
S3151FFF1580DFF884C08CF800009820DFF880C08CF845
S3151FFF159000001F480078C006FBD41D480078C0F323
S3151FFF15A08100C0B20228F8D117F01F00194F3870FB
S3151FFF15B00020194F3870DBB2D2B2C9B2E4B2200095
S3151FFF15C000F0D2FC15F01F0050F0400012490870C2
S3151FFF15D00F4800788006FBD50D4800784006FBD5DF
S3151FFF15E00A48007810F03F0008490870084800783D
S3151FFF15F0C0F38100C0B20328F8D13000C0B2F2BDDC
S3151FFF1600014006403480044008C0074000400640A2
S3151FFF1610064006400440064005400640103A07D3E1
S3151FFF162030B4B1E83810103AA0E83810F9D230BC00
S3151FFF1630530724BFB1E80810A0E8081044BF51F8AC
S3151FFF1640043B40F8043BD20724BF31F8022B20F896
S3151FFF1650022B44BF0B7803707047083A07D3B1E8D4
S3151FFF16600810083A40F8043B40F804CBF7D253075B
S3151FFF1670E4E7000080B55748006880475648006872
S3151FFF168050F001005449086001BD80B551484068BC
S3151FFF169080475148006850F002004F49086001BD5E
S3151FFF16A080B54C48806880474B48006850F004005F
S3151FFF16B04949086001BD80B54648C068804746480E
S3151FFF16C0006850F008004449086001BD80B54148D5
S3151FFF16D0006980474048006850F010003E49086087
S3151FFF16E001BD80B53B48406980473B48006850F0C5
S3151FFF16F020003949086001BD80B53648806980479B
S3151FFF17003548006850F040003349086001BD80B579
S3151FFF17103048C06980473048006850F080002E4926
S3151FFF1720086001BD80B52B48006A80472A480068BC
S3151FFF173050F480702849086001BD80B52548406A6E
S3151FFF174080472548006850F400702349086001BD93
S3151FFF175080B52048806A80471F48006850F0010007
S3151FFF17601D49086001BD80B51A48C06A80471A48DF
S3151FFF1770006850F400601849086001BD80B5154820
S3151FFF1780006B80471448006850F480501249086068
S3151FFF179001BD80B50F48406B80470F48006850F466
S3151FFF17A000500D49086001BD80B50A48806B804710
S3151FFF17B00948006850F480400749086001BD80B59D
S3151FFF17C00448C06B80470448006850F40040024934
S3151FFF17D0086001BD6821FF1F2480004080B538487F
S3151FFF17E00078C0070CD537480078C00708D53148A1
S3151FFF17F0006880473248007810F0FE0030490870B5
S3151FFF18002F48007880070CD52E480078800708D50B
S3151FFF18102948006880472A48007810F0FD002849AC
S3151FFF182008702748007840070CD5264800784007E0
S3151FFF183008D52248006880472148007810F0FB0032
S3151FFF18401F49087001BD80B51F480078C0070CD51A
S3151FFF18501E480078C00708D51648406880471A48B3
S3151FFF1860007810F0FE0018490870174800788007A7
S3151FFF18700CD516480078800708D50F484068804763
S3151FFF18801148007810F0FD000F4908700E480078C8
S3151FFF189040070CD50D480078400708D50748406814
S3151FFF18A080470948007810F0FB000749087001BD03
S3151FFF18B0000000005021FF1F5821FF1F6021FF1F3F
S3151FFF18C020C00C4021C00C4020D00C4021D00C4022
S3151FFF18D080B52E480078800726D52B48006880479D
S3151FFF18E02B480078000705D52948007850F00800D7
S3151FFF18F02749087026480078800705D524480078B1
S3151FFF190050F002002249087020480078C00605D50E
S3151FFF19101E48007850F010001C4908701B480078BD
S3151FFF192050F002001949087001BD80B519480078AB
S3151FFF1930800726D514484068804717480078000758
S3151FFF194005D51548007850F008001349087012484E
S3151FFF19500078800705D51048007850F002000E4921
S3151FFF196008700C480078C00605D50A48007850F065
S3151FFF19701000084908700748007850F00200054913
S3151FFF1980087001BD00000000D821FF1F036006403D
S3151FFF199008600640037006400870064080B5DFF8F2
S3151FFF19A07800006850F00070DFF86C100860DFF8F1
S3151FFF19B064000068002803D0DFF8580000688047DE
S3151FFF19C001BD80B5DFF85000006850F00060DFF8FA
S3151FFF19D048100860DFF83C004068002803D0DFF896
S3151FFF19E034004068804701BD80B5DFF82800806856
S3151FFF19F0002803D0DFF81C008068804701BD80B533
S3151FFF1A00DFF81000C068002803D0DFF80800C068A1
S3151FFF1A10804701BDA821FF1F04000C4080B51A484F
S3151FFF1A20006840060CD518480068800608D5174879
S3151FFF1A30006880471448006830F04000124908606C
S3151FFF1A4014480068C0070CD50F480068800308D5E7
S3151FFF1A500F48006880470F48006850F001000D4986
S3151FFF1A6008600D48006880070CD50748006880038B
S3151FFF1A7008D50748006880470748006850F00200EE
S3151FFF1A800549086001BD000000600340E421FF1FF8
S3151FFF1A90E821FF1F146003403C60034080B51648D2
S3151FFF1AA0006880475FF0FF301449086001BD80B5AD
S3151FFF1AB01148406880475FF0FF301149086001BD3C
S3151FFF1AC080B50D48806880475FF0FF300D4908607D
S3151FFF1AD001BD80B50848C06880475FF0FF300A49DF
S3151FFF1AE0086001BD80B50448006980475FF0FF307D
S3151FFF1AF00649086001BD0000C421FF1FA0900440D6
S3151FFF1B00A0A00440A0B00440A0C00440A0D0044041
S3151FFF1B1080B51748006848F21001084217D01548CC
S3151FFF1B200068002813D013480068804710480068D4
S3151FFF1B3050F480400E4908600D48006850F400407D
S3151FFF1B400B4908604FF6FF700B4908600DE00A4806
S3151FFF1B500068002809D007484068002805D00548B7
S3151FFF1B604068804705480449086001BD0000000022
S3151FFF1B70005004405422FF1F0C5004400000FFFF7B
S3151FFF1B8080B51548006880471448006850F001006B
S3151FFF1B901249086001BD80B50F484068804710484D
S3151FFF1BA0006850F001000E49086001BD80B50A4864
S3151FFF1BB0806880470B48006850F00100094908609C
S3151FFF1BC001BD80B50448C06880470748006850F0CC
S3151FFF1BD001000549086001BDEC21FF1F0C71034081
S3151FFF1BE01C7103402C7103403C71034080B516489E
S3151FFF1BF00068C00709D51348006880471248006868
S3151FFF1C0050F00100104908601AE00F48006880076E
S3151FFF1C1009D50C48406880470B48006850F0020002
S3151FFF1C20094908600CE008480068400708D50548C1
S3151FFF1C30806880470448006850F004000249086026
S3151FFF1C4001BD0000FC21FF1F14D0034070B4104CD0
S3151FFF1C5024680F4D2D6855F47F050D4E3560090617
S3151FFF1C6011F0706151EA0070110511F470010843FC
S3151FFF1C70190411F47021084306490860002000E08B
S3151FFF1C80401CC0B29842FBD30148046070BC70472A
S3151FFF1C9000F00140448004402A2A2A2A2A2A2A2A97
S3151FFF1CA02A2A2A2A2A2A2A2A2A2A2A2A2A2A2A2A70
S3151FFF1CB02A2A2A2A2A2A2A2A2A2A2A2A2A2A2A2A60
S3151FFF1CC02A2A2A2A2A2A2A2A2A2A2A2A2A2A2A2A50
S3151FFF1CD02A2A2A2A2A2A2A2A2A2A2A2A0D0A0000D1
S3151FFF1CE02A2A2A2A2A2A2A2A2A2A2A20BBF9D3DA81
S3151FFF1CF0C0ADC6D5C0BCB5C24B3630B5D7B2E3BF34
S3151FFF1D00E220687474703A2F2F7777772E6C706C7A
S3151FFF1D10642E636E202A2A2A2A2A2A2A2A2A2A2A4E
S3151FFF1D200D0A0000CFB5CDB3C6F4B6AFCDEAB1CF1E
S3151FFF1D30A3ACC8F4D2AABDFBD3C3B5F7CAD4CAE4B2
S3151FFF1D40B3F6C7EBB6A8D2E55052494E545F4F4E76
S3151FFF1D505F4F4646CEAA31286B36305F636172648A
S3151FFF1D602E68290D0A0000004F534B696E65746973
S3151FFF1D7073B9CCBCFEBFE2B0E6B1BE3A2573096D9F
S3151FFF1D8061696C3A737570706F7274406C706C64B6
S3151FFF1D902E636E0D0A0000000D0A2A2A2A2ABDF895
S3151FFF1DA0C8EBCEB4B6A8D2E5D6D0B6CF2C496E7443
S3151FFF1DB0657272757074204E756D6265722025642B
S3151FFF1DC02A2A2A2A2A0D0A0010B5074979441831EB
S3151FFF1DD0064C7C44163404E00A68081D51188847D0
S3151FFF1DE00146A142F8D110BD74000000800000001B
S3151FFF1DF0CFB5CDB3C4DABACBCAB1D6D33A25644D64
S3151FFF1E00487A09D7DCCFDFCAB1D6D33A25644D4806
S3151FFF1E107A0D0A00466C6578427573CAB1D6D33AF6
S3151FFF1E2025644D487A09466C617368CAB1D6D33AA1
S3151FFF1E3025644D487A0D0A0080B50748006880471C
S3151FFF1E4001BD80B504484068804701BD80B5024883
S3151FFF1E508068804701BD0000B821FF1FCBF3FFFF3E
S3151FFF1E60C8020000C81FFF1F000000000D0A2A2A14
S3151FFF1E702A2AC4DABACBB7A2C9FAD3B2BCFEB4EDCB
S3151FFF1E80CEF32A2A2A2A2A0D0A00000080B5054802
S3151FFF1E90006850F0800003490860034800688047C8
S3151FFF1EA001BD000000000440E021FF1F80B505486B
S3151FFF1EB00068804701BD80B502484068804701BD65
S3151FFF1EC000000000C81FFF1F00F00BF8002801D0FD
S3151FFF1ED0FFF77AFF0020C046C04600F004F800F067
S3151FFF1EE003F801207047FEE700F000B807463846A3
S3151FFF1EF000F002F8FBE7000080B5C046C046024A65
S3151FFF1F0011001820ABBEFBE72600020080B50100BB
S3151FFF1F1049B20248FEF710FC01BD000000B00E409B
S3151FFF1F20FFFFFFFFFFFFFFFFFFFFFFFFFFFFFFFF9D
S3151FFF1F3000E1F50580B502480068804701BD000036
S3151FFF1F405022FF1F80B502480068804701BD000071
S3151FFF1F508C22FF1FC046C046C046C046FFF7B4FFD0
S30D1FFF1F60332E30330000000091
S7051FFF1F5568
