S01100004D794361725F4B36302E7372656327
S1130000B017FF1F1104000021040000AF19000005
S1130010210400002104000021040000000000006D
S113002000000000000000000000000021040000A7
S1130030210400000000000021040000952C0000B1
S1130040392100004F210000652100007B210000C0
S113005091210000A7210000BD210000D321000050
S1130060E9210000FF210000152200002B220000DE
S113007041220000572200006D220000832200006C
S113008021040000210400002104000021040000D8
S113009021040000210400002104000021040000C8
S11300A071290000CB290000D51200007F13000045
S11300B0291400003F160000471600004F160000E8
S11300C05D1600006716000071160000731600002C
S11300D075160000771600007F16000087160000D2
S11300E0951600009F160000C9160000CB160000EC
S11300F0CD160000630700002104000093070000F0
S113010021040000C307000021040000F3070000DD
S1130110210400002308000021040000530800000B
S11301202104000087120000911200002104000045
S11301302104000021040000A9300000B3300000B5
S1130140BD30000021040000912D000000000000DB
S1130150451F00005B1F0000711F0000871F000087
S1130160C92B00009931000021040000952B0000E8
S11301706F2B0000492B0000AB2B00002104000072
S113018021040000A12200000B230000B92C000070
S1130190210400002131000021040000B71D0000EB
S11301A0C91D0000DB1D0000ED1D0000FF1D000047
S11301B021040000210400002104000021040000A7
S11301C02104000021040000210400002104000097
S11301D02104000021040000210400002104000087
S11301E0B9190000B9190000B9190000B9190000C3
S11304100148804701480047951800004F2D00000F
S113042001F0CABA0FB4F0B50598069B9DF81C708C
S11304309DF81D500899099A002B01D14FF41653C9
S1130440DFF84044A0423FD10024DFF83C64366822
S1130450DFF838C4DCF800C05CF4806CDFF82CE40E
S1130460CEF800C0FFB2022F06D14FF40077DFF8B8
S113047020C4CCF800700FE0FFB20E2F06D14FF469
S11304804077DFF810C4CCF8007005E04FF44077F3
S1130490DFF804C4CCF80070EDB2012D05D14FF49F
S11304A00075DFF8F8733D60F4E0EDB20F2D05D16F
S11304B04FF44075DFF8E8733D60EBE04FF44075AE
S11304C0DFF8E0733D60E5E0DFF8DC43A0422CD1C7
S11304D00124DFF8B4633668DFF8B0C3DCF800C089
S11304E05CF4006CDFF8A4E3CEF800C0FFB27C2F0C
S11304F006D14FF44077DFF8B4C3CCF8007005E0C0
S11305004FF44077DFF8A8C3CCF80070EDB27D2D2E
S113051005D14FF44075DFF89C733D60BAE04FF4A9
S11305204075DFF894733D60B4E0DFF890432668CB
S1130530DFF88C43A04213D10224DFF850532D6816
S113054055F48055DFF844733D604FF44075DFF88F
S113055074733D604FF44075DFF86C733D6099E04F
S1130560DFF86843A0423CD10324DFF820C3DCF861
S113057000C05CF4005CDFF814E3CEF800C0FFB206
S1130580802F06D14FF44077DFF844C3CCF80070D5
S11305900FE0FFB22B2F06D14FF44077DFF834C3BE
S11305A0CCF8007005E04FF44077DFF82CC3CCF8AA
S11305B00070EDB2812D05D14FF44075DFF81C7346
S11305C03D6067E0EDB22A2D05D14FF44075DFF8A8
S11305D010733D605EE04FF44075DFF808733D60D2
S11305E058E0DFF80443A04229D10424DFF8FCC218
S11305F0DCF800C05CF4806CDFF8F0E2CEF800C0F8
S1130600FFB2942F06D14FF44077DFF8E4C2CCF860
S1130610007005E04FF44077DFF8D8C2CCF80070E2
S1130620EDB2952D05D14FF44075DFF8CC723D60E5
S113063030E04FF44075DFF8C4723D602AE00524D1
S1130640DFF8BC02DFF8A4C2DCF800C05CF4006C84
S1130650DFF898E2CEF800C0FFB2652F06D14FF460
S11306604077DFF8A0C2CCF8007005E04FF4407783
S1130670DFF894C2CCF80070EDB2642D05D14FF4CC
S11306804075DFF888723D6004E04FF44075DFF890
S113069080723D60C57815F0F305C570002585703E
S11306A01D01B6FBF5F5077817F0E007ADB25FEA78
S11306B0152C1CF01F0C5CEA0707077045707601C7
S11306C01B01B6FBF3F3ADB2B3EB4513857A15F01A
S11306D0E00713F01F033B4383729DF81E30012B88
S11306E00BD10B00002B08D0C37853F02003C37048
S11306F0884BE4B243F8241003E0C17811F0DF0121
S1130700C1709DF81F1001290BD11100002908D0D8
S1130710C17851F08001C1707F49E4B241F82420CE
S113072003E0C17811F07F01C170C17851F00C0170
S1130730C170F0BC5DF814FB02791206FCD5C171DE
S1130740704770B504000D00160005E095F900101F
S11307502000FFF7F1FF6D1C3000461E0028F5D184
S113076070BD80B56D480078800606D56C48007869
S1130770800602D56748006880476848007800060C
S113078006D567480078000602D5634800688047AC
S113079001BD80B563480078800606D562480078BC
S11307A0800602D55B48406880475E4800780006B2
S11307B006D55D480078000602D557484068804752
S11307C001BD80B559480078800606D558480078A0
S11307D0800602D54F488068804754480078000658
S11307E006D553480078000602D54B4880688047F8
S11307F001BD80B54F480078800606D54E48007884
S1130800800602D54348C06880474A4800780006FD
S113081006D549480078000602D53F48C06880479D
S113082001BD80B545480078800606D54448007867
S1130830800602D5374800698047404800780006A2
S113084006D53F480078000602D533480069804742
S113085001BD80B53B480078800606D53A4800784B
S1130860800602D52B484069804736480078000648
S113087006D535480078000602D5274840698047E8
S113088001BD000000A006405C04FF1F348004404A
S1130890089004403890044044A00440049004406C
S11308A03C90044040A0044000B0064000D0044006
S11308B010B0044004D004400CB004406004FF1F96
S11308C000C006400CC0044008C0044000D00640EC
S11308D010D004402CA0044044B0044014D0044080
S11308E028A0044040B0044000A00E4028800440EA
S11308F060D004403CB0044064D0044038B00440AC
S113090000B00E4024C0044020D0044020C0044065
S113091024D004403007FF1F4807FF1F04A00640EF
S113092003A0064004B0064003B0064004C00640DD
S113093003C0064004D0064003D0064004A00E4085
S113094003A00E4004B00E4003B00E4010B50C00DE
S11309501168012902D0022904D009E040B251688B
S1130960884705E0916808709068401C9060FFE734
S11309702068401C206010BD30B41C0000230025FA
S11309800570401C002A19D0096800290AD13021B9
S113099001705B1C180030BC7047303511000570C5
S11309A0401C5B1C0029F5D091FBF4F204FB1215EA
S11309B0002DF2D5E94311F13105EFE7096800296B
S11309C008D1302101705B1CE4E737351100057054
S11309D0401C5B1C0029DDD0B1FBF4F204FB1215B2
S11309E00A2DF2D23035F1E7F8B504000D001600F7
S11309F01F0005E03A0031003020FFF7A7FF641C18
S1130A00AC42F7DBF1BDF8B504000D0016001F0081
S1130A1005E03A0031002020FFF798FF641CAC4247
S1130A20F7DBF1BD2DE9F04F8DB0050090460020B5
S1130A3000900C0004E02A0000A9FFF787FF641C63
S1130A4094F90000002800F0DD81252811D00A283F
S1130A5004D02A0000A9FFF779FF09E02A0000A9C1
S1130A600D20FFF773FF2A0000A90A20FFF76EFF8D
S1130A70E5E70026002101E056F0010600291CD11B
S1130A80641C94F9000020280BD023280FD02B28B5
S1130A9004D02D28F0D0302806D00BE056F0020602
S1130AA0ECE756F00406E9E756F00806E6E756F0E8
S1130AB01006E3E7641E0121E0E70027002104E0BB
S1130AC00A2202FB0700B0F13007002909D1641C97
S1130AD094F900000200303A092AF1D9641E012178
S1130AE0F3E7641C94F900002E280CD10021FFE7E1
S1130AF0002909D1641C94F9000030380928F7D979
S1130B00641E0121F4E7641E641C94F900004C285F
S1130B1006D0682802D06C2801D002E002E001E08F
S1130B2000E0641E641C94F900000100582977D089
S1130B30622900F0D880632900F02A81642913D047
S1130B40692911D06E2900F056816F2900F0BE800A
S1130B50702900F0D580732900F02481752900F0F4
S1130B60DC8078295CD066E7D8F8000018F1040826
S1130B7003900A23012203A904A8FFF7FDFE81467E
S1130B8004A819EB000002900398002804D55FF034
S1130B902D0A19F101090FE0B00704D55FF02B0A03
S1130BA019F1010908E0700704D55FF0200A19F172
S1130BB0010901E05FF0000A5FF0000B300711D576
S1130BC0BAF1000F04D02A0000A95046FFF7BEFE78
S1130BD05FF0010B2B0000AA39004846FFF704FF21
S1130BE0B94611E0F0070FD42B0000AA390048469B
S1130BF0FFF709FFBAF1000F04D02A0000A95046FC
S1130C00FFF7A4FE5FF0010BBBF1000F07D1BAF1AF
S1130C10000F04D02A0000A95046FFF797FEA9E070
S1130C20D8F8000018F1040801901023002201A94B
S1130C3004A8FFF7A1FE814604A819EB0000029066
S1130C405FF0000B300715D5F0060BD52A0000A97C
S1130C503020FFF77BFE2A0000A97820FFF776FEFC
S1130C605FF0010B2B0000AA39004846FFF7BCFED9
S1130C70B94619E0F00717D4F00601D519F10209B5
S1130C802B0000AA39004846FFF7BDFEF0060BD53D
S1130C902A0000A93020FFF759FE2A0000A9782075
S1130CA0FFF754FE5FF0010BF0060ED5BBF1000F09
S1130CB00BD12A0000A93020FFF748FE2A0000A922
S1130CC07820FFF743FE19F1020953E0D8F8000039
S1130CD018F1040801900823002201A904A8FFF7D1
S1130CE04BFE814625E0D8F8000018F10408019075
S1130CF00223002201A904A8FFF73EFE814618E062
S1130D00D8F8000018F1040801901023002201A96A
S1130D1004A8FFF731FE81460BE0D8F8000018F173
S1130D20040801900A23002201A904A8FFF724FE65
S1130D30814604A819EB00000290300707D52B0068
S1130D4000AA39004846FFF74FFEB94612E0F00703
S1130D5010D42B0000AA39004846FFF754FE09E0DE
S1130D602A0000A9029890F90000FFF7EFFD02980D
S1130D70401E0290029890F900000028F0D1F0077C
S1130D8005D52B0000AA39004846FFF73CFE56E67D
S1130D90D8F8000018F1040840B22A0000A9FFF7AF
S1130DA0D5FD4CE6D8F800A018F10408BAF1000FFC
S1130DB020D0504600F03CF88146F0070ED42B00BA
S1130DC000AA39004846FFF71EFE07E02A0000A9E2
S1130DD09AF90000FFF7BAFD1AF1010A9AF9000026
S1130DE00028F3D1F00705D52B0000AA39004846A6
S1130DF0FFF709FE23E6D8F8000018F1040800996B
S1130E0001601CE600980DB0BDE8F08F0EB400B58B
S1130E1084B0012100910549019105AA010000A8AF
S1130E20FFF700FE04B05DF810FB00008531000000
S1130E300021002802D1002007E0491C0200501CB8
S1130E4092F90020002AF8D1080070470FB42DE968
S1130E50F84F0A9C9DF82C509DF82D008DF8020047
S1130E609DF82E609DF82F008DF801009DF830004C
S1130E708DF800009DF832709DF831809DF8349013
S1130E80DDF838A0EDB2002D07D0EDB2202D04D04E
S1130E903921DFF8080400F013FA9DF80200042851
S1130EA004DB3A21DFF8F40300F00AFAF6B2002E6C
S1130EB007D0F6B2102E04D03B21DFF8E00300F097
S1130EC0FFF99DF80100042804DB3C21DFF8CC0382
S1130ED000F0F6F99DF8000010F00300042804D394
S1130EE03D21DFF8B80300F0EBF9FFB2002F07D083
S1130EF0FFB2102F04D03E21DFF8A00300F0E0F988
S1130F005FFA88F818F00700042804DB3F21DFF8B3
S1130F108C0300F0D5F9DFF88803844255D15FF0E3
S1130F20000BDFF88003006850F00060DFF87413F2
S1130F3008609DF83300012802D1200000F055F923
S1130F40F6B29DF80200800010F00C00304350F01F
S1130F500100A060FFB29DF8010010F003003843C7
S1130F6050F00400E06041F23420A06145F2786062
S1130F70E0615FFA89F919F0400050F0180020622E
S1130F809DF83500012803D1206A50F00400206246
S1130F909DF8000060625FFA88F85FEA0840206507
S1130FA0EDB25FFA89F919F0010044F82050504677
S1130FB0002805D0DFF8F0025FFA8BFB40F82BA085
S1130FC00120BDE8F20F5DF814FBDFF8E002844273
S1130FD00AD15FF0010BDFF8D802006850F000601E
S1130FE0DFF8CC120860A4E70020EAE7026832F0D8
S1130FF04002026002685209520102600268C9B2EA
S113100011F01F011143016001680906FCD5006954
S113101080B27047C268C2F30012C9B21F2901DB53
S113102000202CE09E4B98427AD1C9B208000028D7
S1131030032823D9001F23D0401E28D0401E012896
S11310402CD9801E012836D9801E01283DD9801E46
S1131050012844D9801E01284BD9801E53D0401E3C
S1131060012851D9801E012857D9001F55D0C01E10
S1131070012852D9C01E01284FD94FE001207047E2
S1131080D2B2012A02D100208A490860F6E7D2B21E
S1131090012A02D1002088490860EFE7D2B2012A70
S11310A008D10020C9B2890001F1804111F59821CD
S11310B041F8040CE2E70020C9B2890001F1804143
S11310C011F5942141F8200CD8E70020C9B2890019
S11310D001F1804111F5922141F80C0CCEE700207A
S11310E0C9B2890001F1804111F5942141F8280C1D
S11310F0C4E70020C9B2890001F1804111F59621AD
S113110041F8380CBAE7B9E70020C9B2890001F107
S1131110804111F59A21C861B0E7AFE70020AEE73E
S1131120624B98425FD1C9B20800002803281BD93A
S1131130001F032819D9001F01282CD9801E032859
S113114033D9001F01283AD9801E42D0401E41D015
S1131150401E022844D9401F42D0C01E01283FD956
S1131160C01E01283CD93CE088E7D2B2002A09D14C
S11311700020C9B2890001F1804111F59A2141F89A
S1131180100C07E00020C9B2890001F1804111F57B
S11311909621086172E70020C9B2890001F18041FB
S11311A011F5942141F8200C68E70020C9B28900A8
S11311B001F1804111F5942141F8180C5EE70020FB
S11311C0C9B2890001F1804111F5942141F8100C54
S11311D054E753E70020394AC9B242F821004DE7E9
S11311E04CE700204BE7002049E77121816004218E
S11311F0C16041F23421816145F27861C16100210D
S11312000162416A31F00B014162416A51F0070108
S11312104162416A51F08001416201680906FCD5CE
S1131220416A490601D500202CE00021C16C826C82
S11312305118426C5118026C5118C26B5118826BD0
S1131240511889B2022291FBF2F151F4004189B2A2
S1131250C1620021C16E826E5118426E5118026E35
S11312605118C26D5118826D511889B2022291FB36
S1131270F2F151F4004189B20163416A31F0800115
S113128041620120704780B507480068804701BD6E
S113129080B505484068804701BD00000C2F000060
S11312A000B003403C8004409C04FF1F00B00B408E
S11312B03080044008B0044004C00440009004405E
S11312C080B50A0001000248FFF7A0FDFEE700BF59
S11312D0A82F000080B582480068002809D57D4801
S11312E0006880477E48006850F000407C490860F0
S11312F044E07B480068C00009D5764840688047D0
S11313007748006850F080507549086036E07448AA
S11313100068000109D56F488068804770480068FC
S113132050F000606E49086028E06D480068800154
S113133009D56848006980476948006850F0007022
S1131340674908601AE066480068000309D56148E7
S1131350C06880476248006850F400206049086013
S11313600CE05F480068800308D55A48406980470C
S11313705B48006850F400305949086001BD80B5ED
S113138058480068002809D55348006880475548E4
S1131390006850F000405349086044E05148006838
S11313A0C00009D54C48406880474E48006850F05A
S11313B080504C49086036E04A480068000109D56D
S11313C04548806880474748006850F000604549B8
S11313D0086028E043480068800109D53E48006958
S11313E080474048006850F000703E4908601AE0A9
S11313F03C480068000309D53748C068804739482D
S1131400006850F40020374908600CE03548006853
S1131410800308D53048406980473248006850F45A
S113142000303049086001BD80B52F4800680028AD
S113143009D52A48006880472B48006850F00040CE
S11314402949086044E028480068C00009D52348B9
S1131450406880472448006850F080502249086062
S113146036E021480068000109D51C48806880479F
S11314701D48006850F000601B49086028E01A48C5
S11314800068800109D5154800698047164800683E
S113149050F00070144908601AE013480068000313
S11314A009D50E48C06880470F48006850F40020F2
S11314B00D4908600CE00C480068800308D5074813
S11314C0406980470848006850F4003006490860C5
S11314D001BD0000DC06FF1FF406FF1F0C07FF1F01
S11314E02CC002402CD002402CC00A40C9B2202992
S11314F006DA026B012313FA01F11143016306E0DA
S1131500C26A0123203913FA01F11143C162704701
S1131510C9B2202904DA006BC84010F0010004E0CD
S1131520C06A2039C84010F00100C0B2704738B515
S113153005000C002100C9B22800FFF7E9FF0028CC
S113154021D02100C9B22800FFF7D0FF57488542B7
S11315500BD15848E4B250F82400002813D0554861
S1131560E4B250F8240080470DE0514885420AD186
S11315705148E4B250F82400002804D04E48E4B2A4
S113158050F82400804731BD38B504000D0029000F
S1131590C9B22000FFF7BCFF012812D1434884429E
S11315A010D14448EDB250F82500002804D0414839
S11315B0EDB250F8250080472900C9B22000FFF79A
S11315C095FF31BD3A4884420BD13B48EDB250F807
S11315D025000028F0D03848EDB250F825008047A7
S11315E0EAE7EEE710B500240FE03448E4B210EB6C
S11315F00410007A012807D12100C9B22F48E4B2AF
S113160022011058FFF7C0FF641CE4B2102C15DA55
S11316102A48E4B2210108580028F5D02748E4B24A
S113162010EB0410007A0228DFD12100C9B223484C
S1131630E4B222011058FFF77AFFE5E710BD80B548
S1131640FFF7D0FF01BD04201D49086070471C4806
S11316500068810701D51A49086070475FF40030BB
S11316601749086070475FF4803015490860704777
S113167070477047704780B5FFF7B4FF01BD042081
S11316801049086070470F480068810701D50D496B
S1131690086070475FF400300A49086070475FF4DF
S11316A08030084908607047000000000040024094
S11316B000400A40A405FF1FE405FF1FA404FF1F08
S11316C02040024020400A4070477047704750F85D
S11316D0041B61B150F8042BD30744BFA9F10103E3
S11316E09A180023091F42F8043BFAD1EFE7704728
S11316F0B0B581EA030C0CF0004C40F2FF7515EA1A
S113170011541DBF15EA1357AC42AF4239E0E41936
S113171023EA455343F48013C90241F0004141EAEE
S1131720505EC7021100A7FB020200284FF0000020
S1131730EEFB01204FF00001E3FB072118BF42F04C
S11317400102401800214941E3FB0E01A4F5806425
S11317500F0302D252004041494154F101046CDDAF
S1131760470872F1004250F1000051EB0451A1F519
S113177080115CBF41EA0C01B0BD4CEA0551002068
S1131780B0BD05EA1357AC4214BFAF4241E050EA82
S1131790410E1CBF52EA430E02E061460020B0BD78
S11317A024423C441BD15FEA070EF6D0090302BF72
S11317B001460020AEF1140EB1FA81F7AEEB070436
S11317C001FA07FE0C37C7F1200100FA07F7C840F9
S11317D04EEA000E23EA455343F48013A2E733F0A4
S11317E00043B3FA83F704BFB2FA82FE77440B3F97
S11317F0E41BB7F1200E2FBF02FA0EF3BB40C7F172
S1131800200E22FA0EFE38BF43EA0E03BA40641CCF
S113181082E750EA410E14BF52EA430E6FF0000112
S11318204FF4001717EB430F8ABF194617EB410F0C
S1131830B5E74CEA05510020B0BDD4F10104B4F180
S113184020070FDAC4F12007520828BF42F0010232
S113185010FA07F501FA07F7E1BF2A43E0403843DD
S1131860E1400FE0352C98DCC7F1200452EA400235
S113187020FA07F218BF42F0010231FA07F0A14042
S11318800A43002172F1004250F1000051EB0C01B7
S1131890B0BD000000B587B04D48006850F47850E2
S11318A04B4908604CF220504A4908804DF62810F4
S11318B0484908804FF4E9704749088000F0B8F8B7
S11318C0642000F009F900F05FF8444800684449D6
S11318D008604348006843490968C1F30361491C2F
S11318E0B0FBF1F0404908603D4800683D49096893
S11318F0C1F30351491CB0FBF1F03C49086038487E
S1131900006838490968C1F30341491CB0FBF1F090
S113191037490860374801905FF4E130029001A92B
S113192084B06846142200F0A3F90FBCFEF77AFDD8
S113193026A0FFF76BFA3048FFF768FA2F493048C2
S1131940FFF764FA284800682E49B0FBF1F22448F6
S113195000682C49B0FBF1F12B48FFF757FA2448F3
S113196000682849B0FBF1F2204800682549B0FB23
S1131970F1F12648FFF74AFA2548FFF747FA2548C8
S1131980FFF744FA07B000BD23480078C0B210F056
S11319901F0018302149484321490978C9B211F080
S11319A01F01491CB0FBF1F00C490860704780B579
S11319B01C48FFF72BFA01BD80B51B480078C0B264
S11319C0B0F110011948FFF721FA01BD0D0A00001A
S11319D0388004400E200540002005407C04FF1F91
S11319E05C04FF1F448004406004FF1F6804FF1F61
S11319F06404FF1F00B00E40842E0000B4310000C8
S1131A00D82F000040420F006030000084300000F6
S1131A10C82E00003C2E00000540064080F0FA026B
S1131A20044006400031000004ED00E008300000EE
S1131A301C481D4988420BD0002006E01A4951F881
S1131A402010184A42F82010401CB0F5826FF5D3DC
S1131A501448164908601649164A1748801A03E0C4
S1131A6013780B70521C491C0300581E002BF7D12D
S1131A7012491348401A02E000220A70491C02006D
S1131A80501E002AF8D10F490F4A1048801A03E06B
S1131A9013780B70521C491C0300581E002BF7D1FD
S1131AA0704700BF0000FF1F0000000008ED00E0C9
S1131AB05C04FF1FCC300000F03000008004FF1FE6
S1131AC0AC07FF1F1004FF1FF02D00003C2E000088
S1131AD0DFF800F01104FF1FF8B5C0B2C92801D324
S1131AE0C820FFE7C0B2010030290ED032291AD035
S1131AF060291BD064291CD078291DD096291ED0BA
S1131B00B4291FD0C82920D022E0182700250600B8
S1131B100024C0B23221B0FBF1F1491EC9B2FF2941
S1131B201AD1002120E018270125F0E718271825ED
S1131B30EDE718271A25EAE713271825E7E70F2703
S1131B401825E4E70E271E25E1E70C271C25DEE710
S1131B506020FFF7C1FF7CE0C0B2C9B24A1C90FB11
S1131B60F2F2332A00D3491CC0B23222B0FBF2F2A3
S1131B70521ED2B2FF2A01D1002207E0C0B2D2B273
S1131B80531C90FBF3F3332B00D3521CC0B2192324
S1131B90B0FBF3F35B1EDBB2FF2B01D1002308E0A3
S1131BA0C0B2DBB213F1010C90FBFCF01A2800D395
S1131BB05B1C0020DFF89CC08CF8000026480068FD
S1131BC050F08050DFF890C0CCF800002348007833
S1131BD050F08000DFF884C08CF800009820DFF813
S1131BE080C08CF800001F480078C006FBD41D4854
S1131BF00078C0F38100C0B20228F8D117F01F00AA
S1131C00194F38700020194F3870DBB2D2B2C9B204
S1131C10E4B22000FFF75CFF15F01F0050F0400015
S1131C20124908700F4800788006FBD50D480078EB
S1131C304006FBD50A48007810F03F0008490870B8
S1131C4008480078C0F38100C0B20328F8D13000FE
S1131C50C0B2F2BD014006403480044008C00740D1
S1131C600040064006400640044006400540064049
S1131C70103A07D330B4B1E83810103AA0E838105D
S1131C80F9D230BC530724BFB1E80810A0E808100B
S1131C9044BF51F8043B40F8043BD20724BF31F859
S1131CA0022B20F8022B44BF0B7803707047083ACC
S1131CB007D3B1E80810083A40F8043B40F804CBD5
S1131CC0F7D25307E4E700000FB42DE9F8430A986C
S1131CD050F48074089F099D9DF82C809DF82D90E8
S1131CE00C9E4B48874203D335214A48FFF7E8FA54
S1131CF05FFA88F8B8F1020F03DB36214548FFF795
S1131D00DFFA5FFA89F9B9F1020F03DB37214148A1
S1131D10FFF7D6FA4048874210D1404900205FFAC5
S1131D2088F8B8F1010F25D17A692A437A615FFAFC
S1131D3089F9B9F1010F1BD17D601EE03848874253
S1131D4002D138490120EAE73748874202D13749AE
S1131D500220E4E73648874202D136490320DEE711
S1131D603548874202D135490420D8E7002019E0DC
S1131D70BD6002E07A69AA437A61002207E035FA7D
S1131D8002F3DB0702D5D2B241F82240521CD2B290
S1131D90202AF4DB3100002903D02949C0B241F8DC
S1131DA020600120BDE8F2035DF814FB012212FA61
S1131DB001F1C160704780B52148006880475FF039
S1131DC0FF302049086001BD80B51D484068804748
S1131DD05FF0FF301C49086001BD80B51848806879
S1131DE080475FF0FF301949086001BD80B5144891
S1131DF0C06880475FF0FF301549086001BD80B5B9
S1131E000F48006980475FF0FF301249086001BD48
S1131E1001F10F40402F000000F00F4000900440FB
S1131E2040F00F4000A0044080F00F4000B0044098
S1131E30C0F00F4000C0044000F10F4000D0044047
S1131E409806FF1FA0900440A0A00440A0B0044046
S1131E50A0C00440A0D00440012110F01F02914012
S1131E604E4A40B2400942F8201070470FB470B592
S1131E7005984B4909684B4AB1FBF2F1069A484B65
S1131E801B68484CB3FBF4F35A434FF47A735A4338
S1131E9001FB00200799424A1268424BB2FBF3F25D
S1131EA05143404A02FB01049DF81050089EEDB2D4
S1131EB0042D03DB32213C48FFF702FA002C03D146
S1131EC033213948FFF7FCF93848006850F4000022
S1131ED0364908600020364908603000002809D0DF
S1131EE03448EDB240F8256002203349EDB211EBDD
S1131EF005118860601E3049EDB22A0150502E4809
S1131F00EDB210EB0510806850F001002A49EDB2E3
S1131F1011EB05118860012070BC5DF814FB0FB44F
S1131F2010B59DF80840E4B2042C03DB76211E486A
S1131F30FFF7C6F914F1440040B2FFF78DFF10BC5F
S1131F405DF814FB80B51B48006880471B48006897
S1131F5050F001001949086001BD80B5154840687A
S1131F6080471748006850F001001549086001BD1A
S1131F7080B51048806880471248006850F001001E
S1131F801049086001BD80B50A48C06880470E4802
S1131F90006850F001000C49086001BD00E100E058
S1131FA06004FF1F40420F00742F00003C80044077
S1131FB000700340C006FF1F007103400C71034012
S1131FC01C7103402C7103403C710340841A71EB73
S1131FD0030604D26E40001BB141121973414FF441
S1131FE0001C1CEB410F34BF7CEB430684E00C0D5A
S1131FF0A4EB1356362E7DDC012E43DC45EAC323C5
S113200043EA525312BFD20292025B08240545EA06
S1132010C12141EA5051D2EBC020994125D407D1C6
S1132020B0FA80F610FA06F164D00020203608E0F9
S1132030B1FA81F6B140C6F1200220FA02F211434E
S1132040B0404FEAF474B4EB465434F001064FEA5E
S113205074040AD8D6F50016760D04F00044F04056
S113206061FA06F25040F1404840C00A40EA41504B
S113207021F0004128BF5FEA500550F1000044EB15
S1132080D12137E045EAC323DB0A45EAC121C90A65
S1132090B6F120050EDD42EA0242120CC5F120061B
S11320A003FA06F6EB4042EA06056D42984161F1F7
S11320B000010DE062FA06F5F240554063FA06FCB1
S11320C082EA0C02F3405A406D42904161EB0301F5
S11320D011F4801F05D1641E620502D06D004041D9
S11320E0494121F48011430875F1004350F1000087
S11320F041EB045170BC70471CEB410F15D223F027
S1132100004352EA43060BD04FEA4C0CBCEB410FA0
S113211004D80C0D661E342EB7DDEBE7801A994106
S113212050EA410608BF0021E4E708BF1CEB430F57
S113213028BF6FF00001DDE780B55748006880478D
S11321405648006850F001005449086001BD80B54C
S11321505148406880475148006850F002004F4998
S1132160086001BD80B54C48806880474B480068D2
S113217050F004004949086001BD80B54648C06874
S113218080474648006850F008004449086001BD93
S113219080B54148006980474048006850F010000D
S11321A03E49086001BD80B53B48406980473B48D3
S11321B0006850F020003949086001BD80B53648F8
S11321C0806980473548006850F040003349086012
S11321D001BD80B53048C06980473048006850F080
S11321E080002E49086001BD80B52B48006A8047F5
S11321F02A48006850F480702849086001BD80B501
S11322002548406A80472548006850F400702349F7
S1132210086001BD80B52048806A80471F48006877
S113222050F001001D49086001BD80B51A48C06A1C
S113223080471A48006850F400601849086001BDDE
S113224080B51548006B80471448006850F48050EE
S11322501249086001BD80B50F48406B80470F48A4
S1132260006850F400500D49086001BD80B50A486B
S1132270806B80470948006850F480400749086033
S113228001BD80B50448C06B80470448006850F421
S113229000400249086001BD3C06FF1F2480004045
S11322A080B538480078C0070CD537480078C00797
S11322B008D53148006880473248007810F0FE00A5
S11322C0304908702F48007880070CD52E480078D4
S11322D0800708D52948006880472A48007810F00C
S11322E0FD00284908702748007840070CD5264887
S11322F00078400708D522480068804721480078C4
S113230010F0FB001F49087001BD80B51F4800781C
S1132310C0070CD51E480078C00708D51648406889
S113232080471A48007810F0FE00184908701748D2
S1132330007880070CD516480078800708D50F4828
S1132340406880471148007810F0FD000F4908707C
S11323500E48007840070CD50D480078400708D592
S11323600748406880470948007810F0FB00074997
S1132370087001BD000000002406FF1F2C06FF1F8B
S11323803406FF1F20C00C4021C00C4020D00C405C
S113239021D00C4080B500203049087001202F491D
S11323A088602F482D4908612C4984B0684614225E
S11323B0FFF75EFC0FBCFFF759FD284984B068465F
S11323C01422FFF755FC0FBCFFF7A9FD01BD80B532
S11323D024482549086001202349487100202249E6
S11323E0887104202049087201201F49C8721E49BF
S11323F084B068461422FFF73BFC0FBCFEF726FDB1
S11324000A211848FEF706FE0B211648FEF702FEC5
S11324100C211448FEF7FEFD0E211248FEF7FAFDCA
S11324200D211048FEF7F6FD01BD80B50F48104997
S1132430086001200E49087301200D4948735FF4B8
S113244000300B4948600A4984B068461422FFF7FB
S11324500FFC0FBCFFF738FC01BD00008C07FF1F09
S11324608D2D000000B00B406407FF1F00F00F40EB
S11324707807FF1F80B5FFF7AAFFFFF78BFFFFF771
S1132480D4FF01BD70B44FF0004591EA030C44BF82
S11324906B40FFF79BBD00BF841A71EB030603D2A8
S11324A0001BB141121973414FF4001C1CEB410F86
S11324B034BF7CEB430443E00C0DA4EB1356352EE0
S11324C050DC45EAC323DB0A45EAC121C912B6F14F
S11324D020050DDD63FA05F6EB4086EA030512429A
S11324E018BF45F00105C01851F100010CD213E0EA
S11324F062FA06F5F2405540F3415A40B340F340C6
S11325005A408018594107D349085FEA30005FEA0E
S1132510350528BF45F0010501F58011420875F124
S1132520004250F1000041EB045170BC4FF4001C18
S11325301CEB410F38BF70470020090D0905704797
S11325401CEB410F10D252EA43060BD0BCEB410FF7
S113255005D80C0DAB43661E342EB5DD02E0AB434B
S11325608018594170BC704770BC704790EA010FE5
S113257044BF81F0004100F075B800BF431A4FF02A
S113258000423EBF5340C01AC91800BFD3095FEAD6
S1132590D05C13EB400F34BFB3EB410F40E07CEB56
S11325A0D1530CD342EA012122D8D1EB402009D3E4
S11325B0400A28BF5FEA500140EBCC507047401AF4
S11325C015D04002B0FA80F2521C9040400A4FEA03
S11325D03C23B3EB026384BF00EB730007E040F4D9
S11325E000001A16DB07C2F10102D04018437047FD
S11325F0182BFCDC31FA03F202FA03F3591A38BF40
S113260042F00102D2EB40203CBF4000ACF1010C8F
S11326105FEACC5CC20572F100414CEB502070477C
S113262013EB400F0FD24B0009D0ACEBD153022B6C
S113263003DB4902172BDDDD70479143401A430049
S1132640D5D10020704713EB410FD0D36FF00000B9
S11326507047000090EA010F44BF81F00041FFF78A
S11326608DBF00BF421A3CBF801A89184FF0004C3E
S1132670C0F3C752FF2A24D0C1F3C75313B3D21AED
S1132680D2F1190327DD4CEA01214CFA03F321EAC4
S11326900303D140C20D4CEA0020401834BF20EAA5
S11326A00C004CEA5000D20553EA006373EB0C0CA7
S11326B052EB1020420012F1807F38BF7047C00DEA
S11326C0C0057047490212BF9A4200EB5120F8E757
S11326D0D2F11703D9D57047F8B506000F00294881
S11326E0006800F069F8284A284BFFF701F800F069
S11326F08BF8244908602348006800F05DF8040062
S11327000D00380000F058F8214A224BFEF7F0FF84
S113271022002B00FFF7B6FE00F076F81949086096
S1132720380018490968FFF721FF1B4908601A4857
S113273001681A48006800F0AFF819490968FFF702
S113274089FF00F039F85FF06632164BFEF7D0FFD0
S113275004000D00300000F02FF8134A134BFEF76D
S1132760C7FF22002B00FFF78DFE00F04DF80C4947
S11327700860094800680E490860094800680D4966
S11327800860F1BD9804FF1F560E2DB29DEFEF3F78
S11327903BDF4F8D976E823F9404FF1FBC310000D6
S11327A09004FF1F6666EE3F9A9999999999A93FFB
S11327B0A407FF1FA007FF1F5FF0FF0C1CEAD05106
S11327C014BF614506E0C110400721F0E04101F16A
S11327D06051704779B900F0004100020AD0B0FAA4
S11327E080FC00FA0CF001F16051A1EB0C5101EBFB
S11327F0D0214005704741020CBF40F4E0016FF066
S113280000010020704700004FEAF17CBCF1E04C6D
S11328102CBFBCF5001F11E05FEA4C0C34BFBCF1C7
S11328207F5F2EE05FEA9C0C4FEA0C1C4FEA3C0CE5
S1132830C10071F100414CEB50707047C90241EA8C
S11328405051C00218BF41F0010141F000414FEA6C
S11328506C50C0F10900212810D240EACC7CCCF1A4
S1132860200C11FA0CF070F10040CCF1200C21FA8C
S11328700CF00CF0004C40EB0C0070474FEACC70AD
S11328807047490011F5001F04D84FEACC10FF30FF
S1132890C0057047C8177047FF2212EAD05C1DBFFD
S11328A012EAD153944593422BE09C44D30780EA27
S11328B001021A4043EA002043EA0121A1FB00304F
S11328C0410038BF40007CF17F010BDBFE294ADA6E
S11328D05B0842EAC15153EA006373F1004C51EBC7
S11328E010207047D1F1080CDCF120012FDB5B08CC
S11328F010FA01F10B4373F1004120FA0CF050413E
S1132900704794451CBF02EAD153934280EA010206
S113291002F000421DD0400019D0490017D05BB925
S1132920634514D00902B1FA81F39940BCEB030C5E
S1132930C00140F00040C1E70002B0FA80FC10FA88
S11329400CF0B3EB0C0CC90141F00041B6E71000E8
S1132950704740000AD0490008D010F1807F94BF2E
S113296011F1807F02E042F0FF407047D04370478E
S113297080B52E480078800726D52B48006880470C
S11329802B480078000705D52948007850F0080046
S11329902749087026480078800705D52448007820
S11329A050F002002249087020480078C00605D57E
S11329B01E48007850F010001C4908701B4800782D
S11329C050F002001949087001BD80B5194800781B
S11329D0800726D5144840688047174800780007C8
S11329E005D51548007850F00800134908701248BE
S11329F00078800705D51048007850F002000E4991
S1132A0008700C480078C00605D50A48007850F0D4
S1132A101000084908700748007850F00200054982
S1132A20087001BD00000000AC06FF1F03600640F3
S1132A3008600640037006400870064080B51A48D6
S1132A400068A0F6520000F051F81849FFF724FF7F
S1132A501749086014484068A0F2466000F05EF828
S1132A60144A154BFEF744FEFFF7CEFE13490860E7
S1132A7001BD80B50A211248FEF7B8FA0A49086078
S1132A800E210F48FEF7B2FA07494860FFF7D6FF58
S1132A900A48016806480068FFF71EFE04480068FB
S1132AA00849086001BD00008004FF1F3F27993DCD
S1132AB08804FF1FFCA9F1D24D62703F8C04FF1FF4
S1132AC000B00B40A807FF1F10B40378D2B25354D0
S1132AD04378D2B2541863708378D2B25418A37076
S1132AE0C078D2B25118C87010BC7047002840F1A9
S1132AF00780F446404200F003F850F0004060477D
S1132B000AD0B0FA80F18840D1F19D01C9050206CE
S1132B1072F1004241EB102070470000010040F1C7
S1132B200780F446404200F003F851F0004160474A
S1132B3009D0B0FA80F18840C91CC1F58461090547
S1132B4001EBD0214005704780B5DFF878000068BC
S1132B5050F00070DFF86C100860DFF86400006863
S1132B60002803D0DFF858000068804701BD80B515
S1132B70DFF85000006850F00060DFF8481008608B
S1132B80DFF83C004068002803D0DFF834004068D8
S1132B90804701BD80B5DFF828008068002803D095
S1132BA0DFF81C008068804701BD80B5DFF81000A5
S1132BB0C068002803D0DFF80800C068804701BD62
S1132BC07C06FF1F04000C4080B51A4800684006CC
S1132BD00CD518480068800608D517480068804757
S1132BE01448006830F04000124908601448006836
S1132BF0C0070CD50F480068800308D50F4800684B
S1132C0080470F48006850F001000D4908600D48E6
S1132C10006880070CD507480068800308D507487A
S1132C20006880470748006850F0020005490860C2
S1132C3001BD000000600340B806FF1FBC06FF1F73
S1132C40146003403C6003401649174A116014495C
S1132C5009684FF47A72B1FBF2F14843401EB0F1B7
S1132C60807F16D2124908600020124908600E487D
S1132C70006850F001000C4908600B48006810F02F
S1132C8001100128F9D007480749086000200949C4
S1132C900860704780B505480068804701BD0000A2
S1132CA05C04FF1F0400010010E000E02407FF1F84
S1132CB014E000E018E000E080B51748006848F22E
S1132CC01001084217D015480068002813D0134893
S1132CD0006880471048006850F480400E4908603E
S1132CE00D48006850F400400B4908604FF6FF702F
S1132CF00B4908600DE00A480068002809D007481D
S1132D004068002805D005484068804705480449C4
S1132D10086001BD00000000005004402807FF1FA8
S1132D200C5004400000FFFF80B5FFF7A2FE022212
S1132D3010491148FFF7C8FE06220E490F48FFF755
S1132D40C3FE0A220B490E48FFF7BEFE01BD80B543
S1132D50FFF790FB11210B48FFF728F83220FFF70B
S1132D6073FFFFF7E1FF102202490748FDF7E9FC72
S1132D70F0E700006C04FF1FA007FF1FA407FF1F5C
S1132D80A807FF1F00F00F4000B00E40704700007E
S1132D9080B516480068C00709D513480068804705
S1132DA01248006850F00100104908601AE00F480A
S1132DB00068800709D50C48406880470B480068C4
S1132DC050F00200094908600CE008480068400718
S1132DD008D50548806880470448006850F004001E
S1132DE00249086001BD0000D006FF1F14D0034053
S1132DF070B4104C24680F4D2D6855F47F050D4EAA
S1132E003560090611F0706151EA0070110511F482
S1132E1070010843190411F470210843064908603D
S1132E20002000E0401CC0B29842FBD3014804607B
S1132E3070BC704700F00140448004402A2A2A2ACA
S1132E402A2A2A2A2A2A2A2A2A2A2A2A2A2A2A2ADE
S1132E502A2A2A2A2A2A2A2A2A2A2A2A2A2A2A2ACE
S1132E602A2A2A2A2A2A2A2A2A2A2A2A2A2A2A2ABE
S1132E702A2A2A2A2A2A2A2A2A2A2A2A2A2A2A2AAE
S1132E800D0A00002A2A2A2A2A2A2A2A2A2A2A2039
S1132E90BBF9D3DAC0ADC6D5C0BCB5C24B3630B56C
S1132EA0D7B2E3BFE220687474703A2F2F77777734
S1132EB02E6C706C642E636E202A2A2A2A2A2A2AEF
S1132EC02A2A2A2A0D0A0000CFB5CDB3C6F4B6AF1C
S1132ED0CDEAB1CFA3ACC8F4D2AABDFBD3C3B5F736
S1132EE0CAD4CAE4B3F6C7EBB6A8D2E55052494EE9
S1132EF0545F4F4E5F4F4646CEAA31286B36305F43
S1132F00636172642E68290D0A000000483A5C4629
S1132F107265657363616C6520436F64655C4653D9
S1132F204C4361722076315C6C69625C4C504C4459
S1132F305C48575C48575F4144432E6300000000DF
S1132F40483A5C467265657363616C6520436F64DF
S1132F50655C46534C4361722076315C6C69625CFB
S1132F604C504C445C48575C48575F4750494F2E7F
S1132F7063000000483A5C467265657363616C6582
S1132F8020436F64655C46534C4361722076315C28
S1132F906C69625C4C504C445C48575C48575F50C9
S1132FA049542E6300000000B6CFD1D4CAA7B0DCC8
S1132FB0B7A2C9FAD3DA20257320B4FAC2EBB5C498
S1132FC0B5DA20256420D0D0A3ACC7EBBCECB2E9C1
S1132FD0B2CECAFDA1A30A004F534B696E65746952
S1132FE073B9CCBCFEBFE2B0E6B1BE3A2573096D3D
S1132FF061696C3A737570706F7274406C706C6454
S11330002E636E0D0A0000000D0A2A2A2A2ABDF832
S1133010C8EBCEB4B6A8D2E5D6D0B6CF2C496E74E0
S1133020657272757074204E756D626572202564C8
S11330302A2A2A2A2A0D0A0010B507497944183188
S1133040064C7C44163404E00A68081D511888476D
S11330500146A142F8D110BD98000000A400000070
S1133060CFB5CDB3C4DABACBCAB1D6D33A25644D01
S1133070487A09D7DCCFDFCAB1D6D33A25644D48A4
S11330807A0D0A00466C6578427573CAB1D6D33A94
S113309025644D487A09466C617368CAB1D6D33A3F
S11330A025644D487A0D0A0080B5074800688047BA
S11330B001BD80B504484068804701BD80B5024821
S11330C08068804701BD00008C06FF1FFFFFFFFFE3
S11330D0FFFFFFFFFFFFFFFFFFFFFFFF03FC0000F9
S11330E000000101010102020202FC0300E1F505F6
S11330F0DFE5FFFF2C0300008004FF1F0000000039
S11331000D0A2A2A2A2AC4DABACBB7A2C9FAD3B238
S1133110BCFEB4EDCEF32A2A2A2A2A0D0A000000A6
S113312080B50548006850F08000034908600348F2
S11331300068804701BD000000000440B406FF1F82
S113314000F00BF8002801D0FFF776FF0020C046FE
S1133150C046FFF7FCFD00F002F80120704700F0C4
S113316001B800000746384600F002F8FBE700000B
S113317080B5C046C046024A11001820ABBEFBE72A
S11331802600020080B5010049B20248FDF7D4FAD6
S113319001BD000000B00E4080B5024800688047C1
S11331A001BD00006007FF1FC046C046C046C046C0
S11331B0FFF7C6FF332E303300000000CDCC4C3D6A
S90331A922
